{
  "contractName": "Person",
  "abi": [
    {
      "constant": true,
      "inputs": [],
      "name": "name",
      "outputs": [
        {
          "name": "",
          "type": "string"
        }
      ],
      "payable": false,
      "stateMutability": "view",
      "type": "function"
    },
    {
      "constant": false,
      "inputs": [
        {
          "name": "_name",
          "type": "string"
        }
      ],
      "name": "setName",
      "outputs": [],
      "payable": false,
      "stateMutability": "nonpayable",
      "type": "function"
    }
  ],
  "bytecode": "0x6060604052341561000f57600080fd5b6102c58061001e6000396000f30060606040526004361061004c576000357c0100000000000000000000000000000000000000000000000000000000900463ffffffff16806306fdde0314610051578063c47f0027146100df575b600080fd5b341561005c57600080fd5b61006461013c565b6040518080602001828103825283818151815260200191508051906020019080838360005b838110156100a4578082015181840152602081019050610089565b50505050905090810190601f1680156100d15780820380516001836020036101000a031916815260200191505b509250505060405180910390f35b34156100ea57600080fd5b61013a600480803590602001908201803590602001908080601f016020809104026020016040519081016040528093929190818152602001838380828437820191505050505050919050506101da565b005b60008054600181600116156101000203166002900480601f0160208091040260200160405190810160405280929190818152602001828054600181600116156101000203166002900480156101d25780601f106101a7576101008083540402835291602001916101d2565b820191906000526020600020905b8154815290600101906020018083116101b557829003601f168201915b505050505081565b80600090805190602001906101f09291906101f4565b5050565b828054600181600116156101000203166002900490600052602060002090601f016020900481019282601f1061023557805160ff1916838001178555610263565b82800160010185558215610263579182015b82811115610262578251825591602001919060010190610247565b5b5090506102709190610274565b5090565b61029691905b8082111561029257600081600090555060010161027a565b5090565b905600a165627a7a723058207c1df06b559de6df45d3ca1992ee93da26b122b435248eb0a05d42c99acc1a7e0029",
  "source": "pragma solidity ^0.4.17;\n\ncontract Person {\n  string public name;\n\n  function setName(string _name) public {\n    name = _name;\n  }\n}\n",
  "sourcePath": "/home/mesi/Projects/Truffle/contracts/Person.sol",
  "compiler": {
    "name": "solc",
    "version": "0.4.18+commit.9cf6e910.Emscripten.clang"
  },
  "schemaVersion": "1.0.1",
  "updatedAt": "2018-01-31T19:43:57.051Z"
}